:060000000A128A110C280F
:10000800FE00030EF0000A08F1000A168A11F12D0D
:100018000A128A110F288313C230FD001530FE0022
:100028002A30FF00A03084000A168A11B8240A1268
:100038008A110A168A1190240A128A11ED000A16EA
:100048008A1191240A128A11EE000A128A11FE27D7
:100058000A128A11F9000A128A11FF270A128A1154
:10006800FA0083160313C701C80183120313DF01C3
:10007800E001E101E201E301E401E501E601E70154
:10008800E801E901EA01EB01EC01FB0183010A1235
:100098008A15382B83120313DE000A168A112627C5
:1000A8000A128A113330831203136D06031D5D286B
:1000B8005E282C2A0A168A11A3240A128A113B30B8
:1000C80083120313A0009130A1008030A2000A1609
:1000D8008A11BE250A128A11831203136A08D800EE
:1000E8005807A03E840083130008A000840A000873
:1000F8008403A1008630A2000A168A11BE250A12BE
:100108008A11473083120313A0009130A100C03038
:10011800A2000A168A11BE250A128A11C630F800F2
:100128000A30F2000030F300831203136B08D80082
:10013800D9015808F4005908F5000A128A15002058
:100148000A128A117208303E0A168A11DB240A1232
:100158008A11C730F8000A30F2000030F300831229
:1001680003136B08D800D9015808F4005908F500A2
:100178000A168A11CF260A128A117208303E0A1608
:100188008A11DB240A128A11C830F8003A300A169C
:100198008A11DB240A128A11C930F8000A30F200E9
:1001A8000030F300831203136C08D800D9015808F3
:1001B800F4005908F5000A128A1500200A128A115B
:1001C8007208303E0A168A11DB240A128A11CA30D4
:1001D800F8000A30F2000030F300831203136C08B1
:1001E800D800D9015808F4005908F5000A168A11F0
:1001F800CF260A128A117208303E0A168A11DB24A9
:100208000A128A11FF3083120313ED003330831270
:100218000313DA00BB30D900DF30D800D80B12291D
:10022800D90B1229DA0B12290A168A11A3240A12E9
:100238008A11D53083120313A0009030A1008030BA
:10024800A2000A168A11BE250A128A1135308312B5
:100258000313A0009130A100C030A2000A168A1131
:10026800BE250A128A11CA3083120313A0009030E7
:10027800A1009030A2000A168A11BE250A128A111E
:10028800A93083120313A0009030A100D030A2003F
:100298000A168A11BE250A128A11831203136B08E3
:1002A800D800D9015808F2005908F3003C30F4008E
:1002B8000030F5000A168A1170250A128A11831275
:1002C80003136C087207DF0000300318013073074E
:1002D800E0006008E6005F08E5006508F2006608CF
:1002E800F3000030F31BFF30F400F50001300A1270
:1002F8008A157F210A128A11750883120313B10027
:100308007408B0007308AF007208AE003E30AD004C
:10031800EB30AC008530AB001F30AA000A128A11FE
:100328001D240A128A11831203132D08C7002C08F2
:10033800C6002B08C5002A08C4000A128A156520C1
:100348000A128A11831203134508E4004408E300E3
:100358006508F2006608F3000030F31BFF30F40074
:10036800F50001300A128A157F210A128A117508D0
:1003780083120313B1007408B0007308AF00720849
:10038800AE003D30AD00F530AC00C230AB008F3070
:10039800AA000A128A111D240A128A118312031351
:1003A8002D08C7002C08C6002B08C5002A08C40061
:1003B8000A128A1565200A128A1183120313450846
:1003C80083160313C8008312031344088316031308
:1003D800C700831203136508F2006608F3000030B3
:1003E800F31BFF30F400F50001300A128A157F2153
:1003F8000A128A11750883120313B1007408B00039
:100408007308AF007208AE003E30AD00D730AC00C4
:100418000A30AB003D30AA000A128A111D240A12C4
:100428008A11831203132D08C7002C08C6002B0855
:10043800C5002A08C4000A128A1565200A128A1102
:10044800831203134508E2004408E100121507155A
:100458001F305E06031D312A322A362A121107116F
:100468004430EE006B08D800D9015808F20059084A
:10047800F3003C30F4000030F5000A168A117025AC
:100488000A128A11831203136C087207E500003000
:10049800031801307307E60008306A020318552A6A
:1004A800562AAD2A63085F02D8006408031C640A50
:1004B8006002D90059086602031D642A58086502BB
:1004C800031C672A682A742A5E30A0009130A100B4
:1004D8008A30A2000A168A11BE250A128A115D2BDB
:1004E8006309D8006409D900D80A0319D90A610830
:1004F8005802DA006208031C620A5902DB005F082E
:100508005A07DC0060080318600A5B07DD005D0815
:100518006602031D912A5C086502031C942A952A29
:10052800A12A4130A0009130A1008A30A2000A1609
:100538008A11BE250A128A115D2B2F30A000913036
:10054800A1008A30A2000A168A11BE250A128A1151
:100558005D2B08306A06031DB22AB32A402B6508B2
:10056800F2006608F300F401F50100300A128A155A
:100578007F210A128A11750883120313CF007408A9
:10058800CE007308CD007208CC005F08F200600846
:10059800F300F401F50100300A128A157F210A12CE
:1005A8008A11750883120313CB007408CA007308F4
:1005B800C9007208C8005F08F2006008F300F4017F
:1005C800F50100300A128A157F210A128A1175086E
:1005D80083120313B1007408B0007308AF007208E7
:1005E800AE003E30AD00CC30AC00CC30AB00CD30EE
:1005F800AA000A128A111D240A128A1183120313EF
:100608002D08C7002C08C6002B08C5002A08C400FE
:100618000A168A114C250A128A11831203134708F5
:10062800D3004608D2004508D1004408D0000A1279
:100638008A15DB200A128A11031C232B242B322B48
:10064800413083120313A0009130A1008A30A20028
:100658000A168A11BE250A128A115D2B633083128D
:100668000313A0009130A1008A30A2000A168A1153
:10067800BE250A128A115D2B09306A06031D452B17
:10068800462B522B6330A0009130A1008A30A20083
:100698000A168A11BE250A128A115D2B5E30A00047
:1006A8009130A1008A30A2000A168A11BE250A12CA
:1006B8008A11C630F8000A30F2000030F3008312C5
:1006C80003136B08D800D9015808F4005908F5003D
:1006D8000A128A1500200A128A117208303E0A1678
:1006E8008A11DB240A128A11C730F8000A30F20096
:1006F8000030F300831203136B08D800D90158089F
:10070800F4005908F5000A168A11CF260A128A1130
:100718007208303E0A168A11DB240A128A11C83080
:10072800F8003A300A168A11DB240A128A11C930F5
:10073800F8000A30F2000030F300831203136C084B
:10074800D800D9015808F4005908F5000A128A158A
:1007580000200A128A117208303E0A168A11DB2418
:100768000A128A11CA30F8000A30F2000030F30089
:10077800831203136C08D800D9015808F4005908EB
:10078800F5000A168A11CF260A128A117208303E1D
:100798000A168A11DB240A128A11831203136B08C2
:1007A800031DD72BD82B1C2C6C08031DDC2BDD2B31
:1007B8001C2C0A168A11A3240A128A118312031305
:1007C800071187140030A0009030A1008030A200EB
:1007D8000A168A11BE250A128A11403083120313A1
:1007E800A0009030A100C030A2000A168A11BE25D0
:1007F8000A128A11FF3083120313ED004D30831261
:100808000313DA001930D9004F30D800D80B0A2C5E
:10081800D90B0A2CDA0B0A2C831203138710013028
:10082800EE001130ED000A168A11A3240A128A116B
:100838000800831203132D08B7008030B7052D0870
:10084800B2003207BD00AC1F2A2C2B2C2C2C3D14D7
:100858003D080319302C312C402C3D0A031D352C42
:10086800362C3E2C0030AD000030AC000030AB0020
:100878000030AA00AC17482C0030AD000030AC00A6
:100888000030AB000030AA0031088039B7063108C3
:10089800B2003207B800B01F522C532C542C381415
:1008A80038080319582C592C682C380A031D5D2C5C
:1008B8005E2C662C0030B1000030B0000030AF0074
:1008C8000030AE00B017702C0030B1000030B0001E
:1008D8000030AF000030AE0038080319742C752CB6
:1008E8007A2C3D08031D792C7A2C832C0030AD001E
:1008F8000030AC000030AB000030AA005E2F2A08A0
:10090800F20030080A168A1195250A128A1173080E
:1009180083120313C3007208C2004208B200B30175
:10092800B401B5013508BC003408BB003308BA006F
:100938003208B9004308B200B301B401B501350863
:10094800C1003408C0003308BF003208BE002B08BD
:10095800F2002F080A168A1195250A128A117308BF
:1009680083120313C3007208C2004208B200B30125
:10097800B401B5013208B907330803110318013E61
:100988000319C72CBA07340803110318013E0319C9
:10099800CE2CBB07350803110318013E0319D52CCB
:1009A800BC074308B200B301B401B5013208BE0761
:1009B800330803110318013E0319E32CBF07340859
:1009C80003110318013E0319EA2CC0073508031167
:1009D8000318013E0319F12CC1072C08F2002E0858
:1009E8000A168A1195250A128A11730883120313AD
:1009F800C3007208C2004208B200B301B401B501D5
:100A08003208B907330803110318013E03190D2DE5
:100A1800BA07340803110318013E0319142DBB0744
:100A2800350803110318013E03191B2DBC074308A1
:100A3800B200B301B401B5013208BE07330803118F
:100A48000318013E0319292DBF07340803110318A1
:100A5800013E0319302DC007350803110318013E64
:100A68000319372DC1070830B2000310B90DBA0DAC
:100A7800BB0DBC0DB20B392D2B08F2002E080A163F
:100A88008A1195250A128A11730883120313C30069
:100A98007208C2004208B2004308B300B401B501AD
:100AA8003208B907330803110318013E03195D2DF5
:100AB800BA07340803110318013E0319642DBB0754
:100AC800350803110318013E03196B2DBC072A08CA
:100AD800F2002F080A168A1195250A128A1173083E
:100AE80083120313C3007208C2004208B20043080D
:100AF800B300B401B5013208B9073308031103186C
:100B0800013E0319882DBA07340803110318013E62
:100B180003198F2DBB07350803110318013E03196C
:100B2800962DBC070830B2000310B90DBA0DBB0DE5
:100B3800BC0DB20B982D2A08F2002E080A168A114D
:100B480095250A128A11730883120313C3007208C9
:100B5800C2004208B2004308B300B401B50132082C
:100B6800B907330803110318013E0319BC2DBA074E
:100B7800340803110318013E0319C32DBB073508B8
:100B880003110318013E0319CA2DBC072B08F200F4
:100B980030080A168A1195250A128A1173088312D9
:100BA8000313C3007208C2004208B2004308B3002E
:100BB800B401B5013208BE07330803110318013E1A
:100BC8000319E72DBF07340803110318013E031961
:100BD800EE2DC007350803110318013E0319F52D42
:100BE800C1072C08F2002F080A168A1195250A1247
:100BF8008A11730883120313C3007208C2004208E3
:100C0800B2004308B300B401B5013208BE07330887
:100C180003110318013E0319122EBF0734080311EC
:100C28000318013E0319192EC007350803110318CC
:100C3800013E0319202EC1072C08F20030080A16BD
:100C48008A1195250A128A11730883120313C300A7
:100C58007208C2004208B2004308B300B401B501EB
:100C680008300310B20DB30DB40DB50DFF3E031DD2
:100C7800352E3208BE07330803110318013E031945
:100C8800462EBF07340803110318013E03194D2EE1
:100C9800C007350803110318013E0319542EC10774
:100CA8003908B2003A08B3003B08B4003C08B50064
:100CB80018300310B50CB40CB30CB20CFF3E031D76
:100CC8005D2E3208BE07330803110318013E0319CD
:100CD8006E2EBF07340803110318013E0319752E41
:100CE800C007350803110318013E03197C2EC107FC
:100CF8000830B2000310B90DBA0DBB0DBC0DB20B14
:100D08007E2E3D083807B200B301B30D3208823E8B
:100D1800C20033080318013EFF3EC300B02E013065
:100D2800B2000310BE0DBF0DC00DC10DB20B952E44
:100D3800BC1F9F2EA02EA12E3E140130B20003101E
:100D4800B90DBA0DBB0DBC0DB20BA32EFF30C207F7
:100D58000318C30AFF30C307C01FB32EB42E932E47
:100D6800B801BC1FB82EB92ED52EFF303905B200F8
:100D7800FF303A05B300FF303B05B4007F303C0537
:100D8800B50035083404330432040319CC2ECD2EB3
:100D9800D02E0130B800D52E3E1CD32ED42ED52E01
:100DA800CD2E38080319D92EDA2E0B2F0130BE07A5
:100DB800003003180130BF07003003180130C007A6
:100DC800003003180130C107411CEB2EEC2E0B2F0D
:100DD8003E08B2003F08B3004008B4004108B5001F
:100DE8000130B600350DB50CB40CB30CB20CB60B13
:100DF800F62E3508C1003408C0003308BF00320899
:100E0800BE000130C2070318C30A0030C3074308F5
:100E1800803AFF0080307F02031D142FFF3042020A
:100E2800031C172F182F232F7F3083120313C100A1
:100E38008030C0000030BF000030BE00542F831245
:100E480003134308803AFF0080307F02031D2E2FD2
:100E5800013042020318312F322F3E2F0030831207
:100E68000313C1000030C0000030BF000030BE00D6
:100E7800B701542F831203134208BD00FF30BE058B
:100E8800FF30BF057F30C0050030C1053D1C4D2F28
:100E98004E2F4F2FC0173D08B2000310320CC1006F
:100EA8003708C1044108AD004008AC003F08AB005A
:100EB8003E08AA00080083120313A70022306D061B
:100EC800031D672F682F712F0A168A11A3240A128F
:100ED8008A11FF3083120313ED0037302706031DF4
:100EE800762F772F872F0A168A11A3240A128A11C0
:100EF800013083120313E90705306906031D852FA6
:100F0800862F872FE9015E30A0009030A100803045
:100F1800A2000A168A11BE250A128A11C030F800EA
:100F28002A300A168A11DB240A128A118312031343
:100F38006908A5002507B83E840083130008A000AF
:100F4800840A00088403A100C230A2000A168A118C
:100F5800BE250A128A110530F2000030F300831210
:100F680003136908013EF400003003180130F5004E
:100F78000A168A11CF260A128A11720883120313DD
:100F8800A5002507B83E840083130008A000840A42
:100F980000088403A1009230A2000A168A11BE2517
:100FA8000A128A110530F2000030F300831203138D
:100FB8006908023EF400003003180130F5000A16F3
:100FC8008A11CF260A128A11720883120313A50008
:100FD8002507B83E840083130008A000840A00088F
:100FE8008403A100D230A2000A168A11BE250A1273
:100FF8008A1108000134013483120313A101F31F7D
:10100800062807280E28F209F309F20A0319F30A39
:101018000130A100F51F112812281928F409F50933
:10102800F40A0319F50A0130A106A201A301720806
:10103800730403192028212856280130A0002D28E0
:1010480001300310F20DF30DFF3E031D252801307A
:10105800A007F31F30283128242801300310A20DDF
:10106800A30DFF3E031D322873087502031D3E2899
:1010780072087402031C4128422849287208F402A5
:101088007308031CF503F502221401300310F30C56
:10109800F20CFF3E031D4A280130A002031D55280B
:1010A80056283128210803195A285B286028A209E4
:1010B800A309A20A0319A30A2308F3002208F200CD
:1010C8000800031083120313460D470DF700770835
:1010D800031D6F28702879280030C7000030C6002B
:1010E8000030C5000030C400DA284408C8004508AC
:1010F800C9004608CA004708CB001F300310CB0CB4
:10110800CA0CC90CC80CFF3E031D82284808F6000B
:10111800C617FF30C405FF30C505FF30C6050030CF
:10112800C7059630F702F71F9A289B28B328770837
:10113800803A973E0318A128A228A32870280130D6
:101148000310C70CC60CC50CC40CFF3E031DA42815
:101158000130F707031DB128B228A328CA28203078
:101168007702031CB828B928C52870280130C800A0
:101178000310C40DC50DC60DC70DC80BBC28013022
:10118800F7027708031DC928CA28BA287608031960
:10119800CE28CF28DA28C409C509C609C709C40A50
:1011A8000319C50A0319C60A0319C70A080000303B
:1011B800831203134C05D40000304D05D500803050
:1011C8004E05D6007F304F05D70057085604550402
:1011D8005404031DF028F128F9280030CF0000300E
:1011E800CE000030CD000030CC0000305005D400D7
:1011F80000305105D50080305205D6007F305305A8
:10120800D7005708560455045404031D0C290D290A
:1012180015290030D3000030D2000030D100003052
:10122800D000CF1F182919293D290030D4000030DB
:10123800D5000030D6008030D7004C08D4024D08C5
:10124800031C4D0F28292929D5024E08031C4E0FCF
:101258002E292F29D6024F08031C4F0F3429352970
:10126800D7025708CF005608CE005508CD005408BD
:10127800CC00D31F4029412965290030D400003013
:10128800D5000030D6008030D7005008D40251086D
:10129800031C510F50295129D5025208031C520F23
:1012A80056295729D6025308031C530F5C295D2978
:1012B800D7025708D3005608D2005508D100540861
:1012C800D0008030CF068030D30653084F02031D6C
:1012D800772952084E02031D772951084D02031D34
:1012E800772950084C0203187A297B297D29031095
:1012F8007E290314080083120313A4002408031989
:10130800862987299B29F51F8A298B299B297209F8
:10131800A6007309A7007409A8007509A900A60A00
:101328000319A70A0319A80A0319A90AA329750802
:10133800A9007408A8007308A7007208A600750819
:10134800740473047204031DAA29AB29B42900305C
:10135800F5000030F4000030F3000030F200342AC9
:101368009630A500C2290130A50701300310A90C49
:10137800A80CA70CA60CFF3E031DBA29FE302905B0
:10138800031DC729C829B729E2290130A50701305B
:10139800A607003003180130A707003003180130F2
:1013A800A807003003180130A90701300310A90C61
:1013B800A80CA70CA60CFF3E031DDA29FF3029054F
:1013C800031DE729E829C929F4290130A5020130BC
:1013D800A0000310A60DA70DA80DA90DA00BED29BF
:1013E800A81BF729F829FE29023025020318FD2930
:1013F800FE29E9292518012A022A0A2AFF30A6050A
:10140800FF30A7057F30A805FF30A9050310A50CFC
:101418002508A000A101A201A30118300310A00D06
:10142800A10DA20DA30DFF3E031D122A2008A6043C
:101438002108A7042208A8042308A90424080319DA
:10144800262A272A2C2AF51F2A2A2B2A2C2AA917CA
:101458002908F5002808F4002708F3002608F200F8
:10146800080083120313A70011306D06031D3D2ADF
:101478003E2A472A0A168A11A3240A128A15FF301F
:1014880083120313ED0037302706031D4C2A4D2A1B
:101498005D2A0A168A11A3240A128A1501308312BA
:1014A8000313EA070C306A06031D5B2A5C2A5D2ACF
:1014B800EA011130A0009030A1008030A2000A1685
:1014C8008A11BE250A128A15C030F8002A300A1679
:1014D8008A11DB240A128A150A30831203136A025E
:1014E8000318772A782AB62A6A08A5002507A03E95
:1014F800840083130008A000840A00088403A10064
:10150800C130A2000A168A11BE250A128A15831252
:1015180003136A08A5002507A23E84008313000868
:10152800A000840A00088403A1009130A2000A16D2
:101538008A11BE250A128A15831203136A08A500A8
:101548002507A43E840083130008A000840A00082D
:101558008403A100D130A2000A168A11BE250A12FE
:101568008A15372B0A306A06031DBB2ABC2AF82ABB
:101578006A08A5002507A03E840083130008A00080
:10158800840A00088403A100C130A2000A168A1147
:10159800BE250A128A15831203136A08A5002507B7
:1015A800A23E840083130008A000840A0008840374
:1015B800A1009130A2000A168A11BE250A128A15C6
:1015C80083160313200883120313A0008316031342
:1015D800210883120313A100D130A2000A168A1130
:1015E800BE250A128A15372B0B306A06031DFD2A01
:1015F800FE2A372B6A08A5002507A03E840083131E
:101608000008A000840A00088403A100C130A200D9
:101618000A168A11BE250A128A1583160313200892
:1016280083120313A00083160313210883120313E4
:10163800A1009130A2000A168A11BE250A128A1545
:1016480083160313220883120313A00083160313BF
:10165800230883120313A100D130A2000A168A11AD
:10166800BE250A128A1508000A168A11F0240A12E1
:101678008A154F3083120313A0009030A1008130E7
:10168800A2000A168A11BE250A128A151030831282
:101698000313A0009130A100C530A2000A168A11D8
:1016A800BE250A128A15213083120313A000903038
:1016B800A1009130A2000A168A11BE250A128A15C5
:1016C800792BB83083160313C2000B30C3000130E6
:1016D800C2020030031CC303C302420A031D782B55
:1016E800430A031D782B792B6B2B01300A168A11BC
:1016F80028260A128A152F3A031D832B842B652B63
:101708000A168A11A3240A128A150A168A11912721
:101718000A128A1501300A168A1128260A128A1511
:1017280083160313C600B830C4000B30C50001305F
:10173800C4020030031CC503C502440A031DA82BBC
:10174800450A031DA82BA92B9B2B99304606031D80
:10175800AE2BAF2BBB2B831203136E03031DB52BCC
:10176800B62BBB2B0230EE002230ED004C2C99300A
:10177800831603134606031DC22BC32BFF2B02300F
:10178800831203136E06031DCA2BCB2BFF2B0330CA
:10179800EE000A168A11A3240A128A1578308312D9
:1017A8000313A0009030A1008030A2000A168A110D
:1017B800BE250A128A15CA3083120313A00090307E
:1017C800A100C030A2000A168A11BE250A128A1585
:1017D800FD3083120313A0009030A1009030A200C6
:1017E8000A168A11BE250A128A150A128A15602459
:1017F8000A128A154C2C2F30831603134606031D34
:10180800062C072C142C4430831203136E06031D78
:101818000E2C0F2C142C0430EE00121507154C2C2E
:101828004C2C8316031346080A128A1535220A120D
:101838008A158E2B8316031346080A128A115F270E
:101848000A128A158E2B2F30831603134606031DA2
:101858002E2C2F2C362C043083120313EE00333039
:10186800ED008E2B1F304606031D3B2C3C2C5C2CB8
:10187800013083120313EE001130ED008E2B831616
:10188800031346080A128A114E200A128A158E2B53
:10189800831203136E08013A0319152C033A03192E
:1018A8001E2C013A0319272C073A0319432C8E2BB7
:1018B8008E2B0A128A110C287F2DEB012130EC00A7
:1018C800A72DEB012930EC00A72DEB012D30EC0002
:1018D800A72D6908003A0319652C013A0319612CF0
:1018E800033A0319652C013A0319692C073A0319BD
:1018F800692CA72DEB012B30EC00A72DEB01323022
:10190800EC00A72DEB013930EC00A72D6908003A4F
:101918000319822C013A03197E2C033A0319822CED
:10192800013A0319862C073A0319862CA72DEB01D7
:101938001A30EC00A72DEB011F30EC00A72D690829
:10194800003A03199B2C013A03199B2C033A0319FB
:101958009B2C013A03199F2C073A03199F2CA72D9A
:101968000130EB001030EC00A72D6908003A03198C
:10197800B42C013A0319B42C033A0319B42C013AD4
:101988000319B42C073A0319B42CA72D0130EB0026
:101998002430EC00A72D6908003A0319CA2C013A33
:1019A8000319CA2C033A0319CA2C013A0319CA2C81
:1019B800073A0319CA2CA72DEB011F30EC00EB01E5
:1019C8002430EC00A72D6908003A0319E02C013AED
:1019D8000319E02C033A0319E02C013A0319E32C0C
:1019E800073A0319E32CA72DEB011D30EC00A72DB6
:1019F8006908003A0319F82C013A0319F82C033A3C
:101A08000319F82C013A0319F82C073A0319F82C92
:101A1800A72DEB012E30EC00EB013530EC00013046
:101A2800EB00EC01A72D6908003A0319102D013AC3
:101A380003190D2D033A0319102D013A0319132D1B
:101A4800073A0319132DA72DEB011230EC00EB0117
:101A58001430EC00A72D6908003A03192B2D013A20
:101A68000319282D033A03192B2D013A03192B2D9D
:101A7800073A03192B2DA72DEB010630EC00A72DF3
:101A88006908003A0319402D013A0319402D033A19
:101A98000319402D013A0319402D073A0319402D27
:101AA800A72DEB011030EC00EB011530EC009B2C5E
:101AB8006908003A0319582D013A0319552D033ABC
:101AC8000319582D013A03199B2C073A03199B2C2B
:101AD800A72D822C6908003A0319822C013A0319B0
:101AE8006D2D033A0319822C013A0319822C073A07
:101AF8000319822CA72D831203136A08003A0319CD
:101B08006D2C013A03198A2C033A0319A32C013AC4
:101B18000319B92C073A0319CF2C013A0319E72CFA
:101B2800033A0319FC2C013A0319172D0F3A03192C
:101B38002F2D013A0319442D033A03195C2D013A5C
:101B480003196E2DA72D0800831203132308F20032
:101B58008030F2052308A8002807F400A21FB52D3D
:101B6800B62DB72D741474080319BB2DBC2DCC2DBC
:101B7800740A031DC02DC12DC92D0030A3000030EB
:101B8800A2000030A1000030A000A217A301D42DAC
:101B98000030A3000030A2000030A1000030A000F7
:101BA8002708F3008030F305730872060319DD2D4A
:101BB800DE2DDF2D72172708A8002807F300A61FBF
:101BC800E62DE72DE82D731473080319EC2DED2D80
:101BD800FD2D730A031DF12DF22DFA2D0030A700FB
:101BE8000030A6000030A5000030A400A617A70109
:101BF800052E0030A7000030A6000030A5000030F8
:101C0800A4007408730203180A2E0B2E2F2E721FBD
:101C18000E2E0F2E112E8030F2067408F500730870
:101C2800F4007508F3002008F5002408A0007508E2
:101C3800A4002108F5002508A1007508A5002208C0
:101C4800F5002608A2007508A6002308F500270855
:101C5800A3007508A700F5017308A800A9012908C1
:101C6800AB0074082802AA00031CAB032B08803AB7
:101C7800FF0080307F02031D432E1A302A02031C06
:101C8800462E472E802E8312031323082204210494
:101C98002004031D502E522E0130532E0030F50023
:101CA8000030A3000030A2000030A1000030A000E6
:101CB8007308F400862E751C622E632E6C2E750830
:101CC80083120313A8000310280C0138F5006E2EA8
:101CD8000310F50C83120313201C732E742E752E1B
:101CE800F5170130A800230DA30CA20CA10CA00C21
:101CF800A80B772E0130F40773087402031C852E95
:101D0800862E5F2E721B892E8A2ED52E7408031DEF
:101D18008E2E8F2E9A2E003083120313A3000030CC
:101D2800A2000030A1000030A000FF2F831203138F
:101D38002408A007250803110318013E0319A52E3E
:101D4800A107260803110318013E0319AC2EA207A8
:101D5800270803110318013E0319B32EA307231CF8
:101D6800B62EB72E8B2F751CBA2EBB2EC22E750819
:101D7800A8000310280C0138F500C42E0310F50C38
:101D8800201CC72EC82EC92EF5170130A800230D18
:101D9800A30CA20CA10CA00CA80BCB2E0130F407AD
:101DA8008B2F831203132308803AFF002708803AF9
:101DB8007F02031DE92E26082202031DE92E2508AD
:101DC8002102031DE92E240820020318EC2EED2E13
:101DD800442FFF30A800FF30A900FF30AA00FF30D1
:101DE800AB002408AC002508AD002608AE00270883
:101DF800AF002008AC022108031C210F042F052F77
:101E0800AD022208031C220F0A2F0B2FAE02230853
:101E1800031C230F102F112FAF022C08A8072D0821
:101E280003182D0F182F192FA9072E0803182E0F86
:101E38001E2F1F2FAA072F0803182F0AAB072B08DE
:101E4800A3002A08A2002908A1002808A0008030C1
:101E5800F2067503FF3AF5007508031D342F352F78
:101E6800522F0130A007003003180130A1070030BD
:101E780003180130A207003003180130A307522FBE
:101E88002408A0022508031C250FA1022608031C0C
:101E9800260FA2022708031C270FA30223082204E7
:101EA80021042004031D592F5A2F872F7508031D5D
:101EB8005E2F5F2F872F0030A3000030A200003074
:101EC800A1000030A000FF2F0130A8000310A00DD2
:101ED800A10DA20DA30DA80B6A2FF51F742F752F46
:101EE800762F2014751C792F7A2F7E2F0314750DE9
:101EF800F500802F0310F50D74080319842F852F22
:101F0800872F0130F402A21F8A2F8B2F682FF3012D
:101F1800F51F8F2F902F9E2F75087F390319952F46
:101F2800962F992F0130F3009E2F201C9C2F9D2F58
:101F38009E2F962F73080319A22FA32FD52F013098
:101F4800A007003003180130A10700300318013042
:101F5800A207003003180130A307231CB42FB52FA4
:101F6800D52F2008A8002108A9002208AA002308C4
:101F7800AB000130AC002B0DAB0CAA0CA90CA80CC3
:101F8800AC0BBF2F2B08A3002A08A2002908A10028
:101F98002808A000740A0319D22FD32FD52F013097
:101FA800F407740A0319D92FDA2FDF2F7408031DD9
:101FB800DE2FDF2FED2F0030A3000030A20000300D
:101FC800A1000030A0007408031DEB2FEC2FED2FAB
:101FD800F201741CF02FF12FF32FA217F52F7F3089
:101FE800A2057408A8000310280CA300F21FFD2FF7
:101FF800FE2FFF2FA3170800503472346F34673454
:10200800723461346D34203463346F346D34703419
:102018006C34653474346534003457346134733443
:10202800683469346E3467342034503472346F3411
:102038006734723461346D34003457346134733426
:10204800683469346E34673420344D346134633411
:10205800683469346E346534003443346C346F3416
:10206800733465342034743468346534203464340B
:102078006F346F3472340034523465346D346F34D5
:1020880076346534203463346C346F347434683493
:1020980065347334003450347234653473347334B3
:1020A80020346B3465347934203435342034743436
:1020B8006F34003457344134543445345234203466
:1020C8004C344534563445344C343A340034443472
:1020D8006F346F34723420346934733420346F347D
:1020E800703465346E34003450347234653473346B
:1020F8007334203473347734693474346334683413
:10210800003450346F3477346534723469346E3443
:10211800673420346F346E340034453463346F349C
:102128002D3463346F34743474346F346E347334D0
:102138000034523469346E347334653420342634B0
:1021480020344434723479340034533457343634B8
:102158003A342034503441345534533445340034FF
:1021680041347134753461342034733474346F34C9
:1021780072346534003453347434613469346E34E1
:10218800203477346134733468340034533457342A
:1021980035343A342034533454344134523454347A
:1021A8000034463475346E346334743469346F34AF
:1021B8006E343A340034443465346C3469346334EE
:1021C80061347434653473340034423465346434AF
:1021D8007334683465346534743473340034573474
:1021E80061347334683420346F346E346C34793429
:1021F80000345334573436343A3420345334543456
:102208004F345034003444347234793420346F34C9
:102218006E346C347934003450346F347734653428
:10222800723420344F346E34003457346F346F3482
:102238006C3465346E34733400344D34653464342E
:10224800693475346D3400345734683469347434FF
:102258006534733400345334703469346E34203444
:102268000034543469346D3465343A3400345034AD
:1022780072346F3467343A340034523469346E340B
:10228800733465340034543469346D3465347234CD
:1022980000344434613469346C347934003448345B
:1022A80065346134763479340034483469346734B9
:1022B8006834003457346134733468340034533428
:1022C800703469346E3400344134753474346F3486
:1022D80000344C346F34773400344D3461347834FE
:1022E8000034FF1B7F2983137F1883170008840A93
:1022F8000319FF0A08007F087F398A000408840A46
:062308000319FF0A820028
:10292000113401348316031306083F38860008006B
:10293000831603138801091189100A168A11782653
:102940000A168A110800F20101300A168A110A25B6
:102950000A168A110430F7003D30F600F60BAE2C53
:10296000F70BAE2CB32C08007E088A007F0882008B
:102970000A168A11B4240A168A118000840A0408EF
:102980007D0603190034FF0A0319FE0AB82C8312CE
:1029900003131213921212129211121192101210AA
:1029A000831603138C14831203138C10FA308316CE
:1029B00003139200080083120313A400F2017808A5
:1029C0000A168A110A250A168A11F201F20A8312DE
:1029D000031324080A168A110A250A168A11080008
:1029E0000A168A1198240A168A110A168A11922444
:1029F0000A168A110A168A11C7240A168A118B1719
:102A00000B17831603138710071183120313871004
:102A100007110800F50072180E2D122D83120313F2
:102A20000915152D831203130911750888008914DF
:102A3000A630F300F30B1A2D000083120313891044
:102A40001B30F4009E30F300F30B242DF40B242DE7
:102A5000000008004D34913453349134DF34903405
:102A600028349134BF3490349134903419349134F3
:102A7000E93490349D34903407349134F3349034F5
:102A8000B4349034683491346D34913421349134B9
:102A90005934913471349134803083120313C70652
:102AA0004B08A3004A08A2004908A1004808A0005A
:102AB0004708A7004608A6004508A5004408A4004A
:102AC0000A128A15A8250A168A11831203132308ED
:102AD000C7002208C6002108C5002008C40008005D
:102AE000F601F701721C752D762D7C2D7408F60702
:102AF0000318F70A7508F70701300310F40DF50DF8
:102B0000FF3E031D7D2D01300310F30CF20CFF3E40
:102B1000031D842D72087304031D8F2D902D722DBB
:102B20007708F3007608F200080083120313A4006C
:102B3000A001A1017208F400F5017408A200750853
:102B4000A300241CA42DA52DAB2D2208A00703183B
:102B5000A10A2308A10701300310A20DA30DFF3E17
:102B6000031DAC2D0310A40C2408031DB82DB92D92
:102B7000A12D2108F3002008F2000800F2018312C1
:102B8000031322080A168A110A250A168A11E02D53
:102B9000F201F20A2108FF00200884000A168A11B7
:102BA00075210A168A110A168A110A250A168A112F
:102BB000013083120313A0070318A10A0030A107F4
:102BC000831203132108FF00200884000A168A11CB
:102BD00075210A168A11003A031DEF2DF02DC82D1C
:102BE0000800831203138C1CF62DF72D212E0130C3
:102BF000E7070318E80A0030E807203067064E3080
:102C000003196806031D052E062E202E6C080319D5
:102C10000A2E0B2E0E2E0130EC021C2E6C08031D0A
:102C2000122E132E1C2E6B080319172E182E1C2E75
:102C30000130EB023C30EC00E701E80108098800B4
:102C40008C1071088A00700E8300FE0E7E0E090043
:102C5000831203130608F2003F30F2053F3072067C
:102C60000319332E342E3E2E7A080319382E392EAE
:102C70003E2EFA017208FB00F901762E3F307206F3
:102C8000031D432E442E532E7A08031D482E492E31
:102C9000532E0130FA001E3079020318502E512EA7
:102CA000762E7B08772E7A08031D572E582E612E1C
:102CB0001F30790203185D2E5E2E612E0130F90758
:102CC000762E7A08031D652E662E762E1F30790625
:102CD000031D6B2E6C2E762E37307206031D712E5F
:102CE000722E762E0130F9079930772E3F3008008A
:102CF000C330F700CD30F600F60B7C2EF70B7C2EA0
:102D0000F20133300A168A110A250A168A111B307D
:102D1000F7009E30F600F60B8B2EF70B8B2E000083
:102D2000F20133300A168A110A250A168A11A630D2
:102D3000F600F60B992E0000F20133300A168A11C4
:102D40000A250A168A11A42EA52E0000F2013C3095
:102D50000A168A110A250A168A11A630F600F60B01
:102D6000AF2E0000F20101300A168A110A250A1658
:102D70008A110430F7003D30F600F60BBD2EF70B3C
:102D8000BD2EC22EF2010C300A168A110A250A162F
:102D90008A11A630F600F60BCB2E00000800F701D2
:102DA000F51FD32ED42EDB2EF409F509F40A0319EE
:102DB000F50A0130F700F31FDE2EDF2EE42EF209B4
:102DC000F309F20A0319F30A720873040319E92ECE
:102DD000EA2E172F0130F600F62E01300310F20D07
:102DE000F30DFF3E031DEE2E0130F607F31FF92E03
:102DF000FA2EED2E73087502031D002F720874025F
:102E0000031C032F042F0A2F7208F4027308031CFB
:102E1000F503F50201300310F30CF20CFF3E031D25
:102E20000B2F0130F602031D162F172FFA2E7708ED
:102E300003191B2F1C2F212FF409F509F40A03197C
:102E4000F50A7508F3007408F200080083120313F2
:102E500006182B2F2C2F902F0711121187140A16EA
:102E60008A11A3240A168A116B3083120313A0005F
:102E70009030A1008030A2000A168A11BE250A16E1
:102E80008A11313083120313A0009030A100C030AA
:102E9000A2000A168A11BE250A168A11831203138C
:102EA000061C532F542F4E2F0715121587100A1684
:102EB0008A11A3240A168A11D53083120313A000A5
:102EC0009030A1008030A2000A168A11BE250A1691
:102ED0008A11353083120313A0009130A100C03055
:102EE000A2000A168A11BE250A168A11CA30831258
:102EF0000313A0009030A1009030A2000A168A119E
:102F0000BE250A168A11A93083120313A00090303F
:102F1000A100D030A2000A168A11BE250A168A1115
:102F2000080083120313A8012808803EF800FF3030
:102F30000A168A11DB240A168A110330831203133E
:102F4000A7008A30A6005530A500A50BA52FA60B1B
:102F5000A52FA70BA52F013083120313A80710304C
:102F60002802031CB42FB52F942F8530A000903079
:102F7000A100C330A2000A168A11BE250A168A11C2
:102F8000213083120313A0009030A1009130A200E1
:102F90000A168A11BE250A168A1183120313A90183
:102FA0002908D03EF800FF300A168A11DB240A16E1
:102FB0008A11033083120313A7008A30A60055300C
:102FC000A500A50BE12FA60BE12FA70BE12F0130E8
:102FD00083120313A90710302902031CF02FF12FCD
:102FE000D02F333083120313A700BB30A600DF308D
:102FF000A500A50BF92FA60BF92FA70BF92F080099
:02400E00FB3F76
:00000001FF
